{
  "address": "0xe7f1725E7734CE288F8367e1Bb143E90bb3F0512",
  "abi": [
    {
      "inputs": [
        {
          "internalType": "uint256",
          "name": "_lockTime",
          "type": "uint256"
        },
        {
          "internalType": "address",
          "name": "dataFeedAddr",
          "type": "address"
        }
      ],
      "stateMutability": "nonpayable",
      "type": "constructor"
    },
    {
      "inputs": [],
      "name": "dataFeed",
      "outputs": [
        {
          "internalType": "contract AggregatorV3Interface",
          "name": "",
          "type": "address"
        }
      ],
      "stateMutability": "view",
      "type": "function"
    },
    {
      "inputs": [],
      "name": "erc20Addr",
      "outputs": [
        {
          "internalType": "address",
          "name": "",
          "type": "address"
        }
      ],
      "stateMutability": "view",
      "type": "function"
    },
    {
      "inputs": [],
      "name": "fund",
      "outputs": [],
      "stateMutability": "payable",
      "type": "function"
    },
    {
      "inputs": [
        {
          "internalType": "address",
          "name": "",
          "type": "address"
        }
      ],
      "name": "fundersToAmount",
      "outputs": [
        {
          "internalType": "uint256",
          "name": "",
          "type": "uint256"
        }
      ],
      "stateMutability": "view",
      "type": "function"
    },
    {
      "inputs": [],
      "name": "getChainlinkDataFeedLatestAnswer",
      "outputs": [
        {
          "internalType": "int256",
          "name": "",
          "type": "int256"
        }
      ],
      "stateMutability": "view",
      "type": "function"
    },
    {
      "inputs": [],
      "name": "getFund",
      "outputs": [],
      "stateMutability": "nonpayable",
      "type": "function"
    },
    {
      "inputs": [],
      "name": "getFundSuccess",
      "outputs": [
        {
          "internalType": "bool",
          "name": "",
          "type": "bool"
        }
      ],
      "stateMutability": "view",
      "type": "function"
    },
    {
      "inputs": [
        {
          "internalType": "address",
          "name": "funder",
          "type": "address"
        }
      ],
      "name": "getFunderToAmount",
      "outputs": [
        {
          "internalType": "uint256",
          "name": "",
          "type": "uint256"
        }
      ],
      "stateMutability": "view",
      "type": "function"
    },
    {
      "inputs": [],
      "name": "owner",
      "outputs": [
        {
          "internalType": "address",
          "name": "",
          "type": "address"
        }
      ],
      "stateMutability": "view",
      "type": "function"
    },
    {
      "inputs": [],
      "name": "refund",
      "outputs": [
        {
          "internalType": "bool",
          "name": "",
          "type": "bool"
        },
        {
          "internalType": "bytes",
          "name": "",
          "type": "bytes"
        }
      ],
      "stateMutability": "nonpayable",
      "type": "function"
    },
    {
      "inputs": [
        {
          "internalType": "address",
          "name": "_erc20Addr",
          "type": "address"
        }
      ],
      "name": "setErc20Addr",
      "outputs": [],
      "stateMutability": "nonpayable",
      "type": "function"
    },
    {
      "inputs": [
        {
          "internalType": "address",
          "name": "funder",
          "type": "address"
        },
        {
          "internalType": "uint256",
          "name": "amount",
          "type": "uint256"
        }
      ],
      "name": "setFunderToAmount",
      "outputs": [],
      "stateMutability": "nonpayable",
      "type": "function"
    },
    {
      "inputs": [
        {
          "internalType": "address",
          "name": "newOwner",
          "type": "address"
        }
      ],
      "name": "transferOwnerShip",
      "outputs": [],
      "stateMutability": "nonpayable",
      "type": "function"
    }
  ],
  "transactionHash": "0xb0737d3e790eb1cd65c8cf8921f894621912319e3696f635b4405f4364c85222",
  "args": [
    180,
    "0x5FbDB2315678afecb367f032d93F642f64180aa3"
  ],
  "numDeployments": 1,
  "solcInputHash": "d0fd64bfa25268c9d2a37c7e641cbfb3",
  "bytecode": "0x608060405268056bc75e2d631000006001556000600660146101000a81548160ff0219169083151502179055503480156200003957600080fd5b50604051620018003803806200180083398181016040528101906200005f91906200019c565b80600260006101000a81548173ffffffffffffffffffffffffffffffffffffffff021916908373ffffffffffffffffffffffffffffffffffffffff16021790555033600560006101000a81548173ffffffffffffffffffffffffffffffffffffffff021916908373ffffffffffffffffffffffffffffffffffffffff16021790555042600381905550816004819055505050620001e3565b600080fd5b6000819050919050565b6200011181620000fc565b81146200011d57600080fd5b50565b600081519050620001318162000106565b92915050565b600073ffffffffffffffffffffffffffffffffffffffff82169050919050565b6000620001648262000137565b9050919050565b620001768162000157565b81146200018257600080fd5b50565b60008151905062000196816200016b565b92915050565b60008060408385031215620001b657620001b5620000f7565b5b6000620001c68582860162000120565b9250506020620001d98582860162000185565b9150509250929050565b61160d80620001f36000396000f3fe6080604052600436106100c25760003560e01c80639c5e5e0e1161007f578063b60d428811610059578063b60d428814610257578063bea4dfb514610261578063d39cf0061461028c578063da4658e0146102b5576100c2565b80639c5e5e0e146101b25780639e42ff90146101ef5780639f883a051461021a576100c2565b806313ffff01146100c7578063317e3ce0146100f0578063590e1ae31461011b5780638863dd1a146101475780638da5cb5b146101705780638edd6eb61461019b575b600080fd5b3480156100d357600080fd5b506100ee60048036038101906100e99190610cca565b6102e0565b005b3480156100fc57600080fd5b506101056103b4565b6040516101129190610d06565b60405180910390f35b34801561012757600080fd5b506101306103da565b60405161013e929190610dcc565b60405180910390f35b34801561015357600080fd5b5061016e60048036038101906101699190610cca565b610607565b005b34801561017c57600080fd5b506101856106db565b6040516101929190610d06565b60405180910390f35b3480156101a757600080fd5b506101b0610701565b005b3480156101be57600080fd5b506101d960048036038101906101d49190610cca565b610943565b6040516101e69190610e15565b60405180910390f35b3480156101fb57600080fd5b5061020461098b565b6040516102119190610e8f565b60405180910390f35b34801561022657600080fd5b50610241600480360381019061023c9190610cca565b6109b1565b60405161024e9190610e15565b60405180910390f35b61025f6109c9565b005b34801561026d57600080fd5b50610276610aac565b6040516102839190610ec3565b60405180910390f35b34801561029857600080fd5b506102b360048036038101906102ae9190610f0a565b610b4d565b005b3480156102c157600080fd5b506102ca610c24565b6040516102d79190610f4a565b60405180910390f35b600560009054906101000a900473ffffffffffffffffffffffffffffffffffffffff1673ffffffffffffffffffffffffffffffffffffffff163373ffffffffffffffffffffffffffffffffffffffff1614610370576040517f08c379a000000000000000000000000000000000000000000000000000000000815260040161036790610fe8565b60405180910390fd5b80600660006101000a81548173ffffffffffffffffffffffffffffffffffffffff021916908373ffffffffffffffffffffffffffffffffffffffff16021790555050565b600660009054906101000a900473ffffffffffffffffffffffffffffffffffffffff1681565b60006060600454600354426103ef9190611037565b1161042f576040517f08c379a0000000000000000000000000000000000000000000000000000000008152600401610426906110b7565b60405180910390fd5b683635c9adc5dea0000061044247610c37565b10610482576040517f08c379a000000000000000000000000000000000000000000000000000000000815260040161047990611123565b60405180910390fd5b60008060003373ffffffffffffffffffffffffffffffffffffffff1673ffffffffffffffffffffffffffffffffffffffff16815260200190815260200160002054905060008103610508576040517f08c379a00000000000000000000000000000000000000000000000000000000081526004016104ff9061118f565b60405180910390fd5b6000803373ffffffffffffffffffffffffffffffffffffffff164760405161052f906111e0565b60006040518083038185875af1925050503d806000811461056c576040519150601f19603f3d011682016040523d82523d6000602084013e610571565b606091505b5091509150816105b6576040517f08c379a00000000000000000000000000000000000000000000000000000000081526004016105ad90611241565b60405180910390fd5b60008060003373ffffffffffffffffffffffffffffffffffffffff1673ffffffffffffffffffffffffffffffffffffffff168152602001908152602001600020819055508181945094505050509091565b600560009054906101000a900473ffffffffffffffffffffffffffffffffffffffff1673ffffffffffffffffffffffffffffffffffffffff163373ffffffffffffffffffffffffffffffffffffffff1614610697576040517f08c379a000000000000000000000000000000000000000000000000000000000815260040161068e90610fe8565b60405180910390fd5b80600560006101000a81548173ffffffffffffffffffffffffffffffffffffffff021916908373ffffffffffffffffffffffffffffffffffffffff16021790555050565b600560009054906101000a900473ffffffffffffffffffffffffffffffffffffffff1681565b600454600354426107129190611037565b11610752576040517f08c379a0000000000000000000000000000000000000000000000000000000008152600401610749906110b7565b60405180910390fd5b600560009054906101000a900473ffffffffffffffffffffffffffffffffffffffff1673ffffffffffffffffffffffffffffffffffffffff163373ffffffffffffffffffffffffffffffffffffffff16146107e2576040517f08c379a00000000000000000000000000000000000000000000000000000000081526004016107d990610fe8565b60405180910390fd5b683635c9adc5dea000006107f547610c37565b11610835576040517f08c379a000000000000000000000000000000000000000000000000000000000815260040161082c906112ad565b60405180910390fd5b60003373ffffffffffffffffffffffffffffffffffffffff164760405161085b906111e0565b60006040518083038185875af1925050503d8060008114610898576040519150601f19603f3d011682016040523d82523d6000602084013e61089d565b606091505b50509050806108e1576040517f08c379a00000000000000000000000000000000000000000000000000000000081526004016108d890611241565b60405180910390fd5b60008060003373ffffffffffffffffffffffffffffffffffffffff1673ffffffffffffffffffffffffffffffffffffffff168152602001908152602001600020819055506001600660146101000a81548160ff02191690831515021790555050565b60008060008373ffffffffffffffffffffffffffffffffffffffff1673ffffffffffffffffffffffffffffffffffffffff168152602001908152602001600020549050919050565b600260009054906101000a900473ffffffffffffffffffffffffffffffffffffffff1681565b60006020528060005260406000206000915090505481565b600454600354426109da9190611037565b10610a1a576040517f08c379a0000000000000000000000000000000000000000000000000000000008152600401610a1190611319565b60405180910390fd5b600154610a2634610c37565b1015610a67576040517f08c379a0000000000000000000000000000000000000000000000000000000008152600401610a5e90611385565b60405180910390fd5b346000803373ffffffffffffffffffffffffffffffffffffffff1673ffffffffffffffffffffffffffffffffffffffff16815260200190815260200160002081905550565b600080600260009054906101000a900473ffffffffffffffffffffffffffffffffffffffff1673ffffffffffffffffffffffffffffffffffffffff1663feaf968c6040518163ffffffff1660e01b815260040160a060405180830381865afa158015610b1c573d6000803e3d6000fd5b505050506040513d601f19601f82011682018060405250810190610b409190611428565b5050509150508091505090565b600660009054906101000a900473ffffffffffffffffffffffffffffffffffffffff1673ffffffffffffffffffffffffffffffffffffffff163373ffffffffffffffffffffffffffffffffffffffff1614610bdd576040517f08c379a0000000000000000000000000000000000000000000000000000000008152600401610bd490611515565b60405180910390fd5b806000808473ffffffffffffffffffffffffffffffffffffffff1673ffffffffffffffffffffffffffffffffffffffff168152602001908152602001600020819055505050565b600660149054906101000a900460ff1681565b600080610c42610aac565b90506305f5e10081610c549190611564565b83610c5f9190611595565b915050919050565b600080fd5b600073ffffffffffffffffffffffffffffffffffffffff82169050919050565b6000610c9782610c6c565b9050919050565b610ca781610c8c565b8114610cb257600080fd5b50565b600081359050610cc481610c9e565b92915050565b600060208284031215610ce057610cdf610c67565b5b6000610cee84828501610cb5565b91505092915050565b610d0081610c8c565b82525050565b6000602082019050610d1b6000830184610cf7565b92915050565b60008115159050919050565b610d3681610d21565b82525050565b600081519050919050565b600082825260208201905092915050565b60005b83811015610d76578082015181840152602081019050610d5b565b60008484015250505050565b6000601f19601f8301169050919050565b6000610d9e82610d3c565b610da88185610d47565b9350610db8818560208601610d58565b610dc181610d82565b840191505092915050565b6000604082019050610de16000830185610d2d565b8181036020830152610df38184610d93565b90509392505050565b6000819050919050565b610e0f81610dfc565b82525050565b6000602082019050610e2a6000830184610e06565b92915050565b6000819050919050565b6000610e55610e50610e4b84610c6c565b610e30565b610c6c565b9050919050565b6000610e6782610e3a565b9050919050565b6000610e7982610e5c565b9050919050565b610e8981610e6e565b82525050565b6000602082019050610ea46000830184610e80565b92915050565b6000819050919050565b610ebd81610eaa565b82525050565b6000602082019050610ed86000830184610eb4565b92915050565b610ee781610dfc565b8114610ef257600080fd5b50565b600081359050610f0481610ede565b92915050565b60008060408385031215610f2157610f20610c67565b5b6000610f2f85828601610cb5565b9250506020610f4085828601610ef5565b9150509250929050565b6000602082019050610f5f6000830184610d2d565b92915050565b600082825260208201905092915050565b7f596f7520617265206e6f74206f776e65722e2063616e27742063616c6c20746860008201527f69732066756e6300000000000000000000000000000000000000000000000000602082015250565b6000610fd2602783610f65565b9150610fdd82610f76565b604082019050919050565b6000602082019050818103600083015261100181610fc5565b9050919050565b7f4e487b7100000000000000000000000000000000000000000000000000000000600052601160045260246000fd5b600061104282610dfc565b915061104d83610dfc565b925082820390508181111561106557611064611008565b5b92915050565b7f4c6f636b2074696d65206973206e6f742066756c6c2e00000000000000000000600082015250565b60006110a1601683610f65565b91506110ac8261106b565b602082019050919050565b600060208201905081810360008301526110d081611094565b9050919050565b7f66756e64206973206c657373207468616e207461726765742e00000000000000600082015250565b600061110d601983610f65565b9150611118826110d7565b602082019050919050565b6000602082019050818103600083015261113c81611100565b9050919050565b7f5468657265206973206e6f2066756e642e000000000000000000000000000000600082015250565b6000611179601183610f65565b915061118482611143565b602082019050919050565b600060208201905081810360008301526111a88161116c565b9050919050565b600081905092915050565b50565b60006111ca6000836111af565b91506111d5826111ba565b600082019050919050565b60006111eb826111bd565b9150819050919050565b7f7472616e73666572207478206661696c65640000000000000000000000000000600082015250565b600061122b601283610f65565b9150611236826111f5565b602082019050919050565b6000602082019050818103600083015261125a8161121e565b9050919050565b7f546172676574206973206e6f7420726561636865640000000000000000000000600082015250565b6000611297601583610f65565b91506112a282611261565b602082019050919050565b600060208201905081810360008301526112c68161128a565b9050919050565b7f4c6f636b2074696d652069732066756c6c2e0000000000000000000000000000600082015250565b6000611303601283610f65565b915061130e826112cd565b602082019050919050565b60006020820190508181036000830152611332816112f6565b9050919050565b7f53656e64206d6f72652045544821000000000000000000000000000000000000600082015250565b600061136f600e83610f65565b915061137a82611339565b602082019050919050565b6000602082019050818103600083015261139e81611362565b9050919050565b600069ffffffffffffffffffff82169050919050565b6113c4816113a5565b81146113cf57600080fd5b50565b6000815190506113e1816113bb565b92915050565b6113f081610eaa565b81146113fb57600080fd5b50565b60008151905061140d816113e7565b92915050565b60008151905061142281610ede565b92915050565b600080600080600060a0868803121561144457611443610c67565b5b6000611452888289016113d2565b9550506020611463888289016113fe565b945050604061147488828901611413565b935050606061148588828901611413565b9250506080611496888289016113d2565b9150509295509295909350565b7f796f7520646f206e6f74207065726d697373696f6e20746f2063616c6c20746860008201527f69732066756e6300000000000000000000000000000000000000000000000000602082015250565b60006114ff602783610f65565b915061150a826114a3565b604082019050919050565b6000602082019050818103600083015261152e816114f2565b9050919050565b7f4e487b7100000000000000000000000000000000000000000000000000000000600052601260045260246000fd5b600061156f82610dfc565b915061157a83610dfc565b92508261158a57611589611535565b5b828204905092915050565b60006115a082610dfc565b91506115ab83610dfc565b92508282026115b981610dfc565b915082820484148315176115d0576115cf611008565b5b509291505056fea2646970667358221220f2c084cedfe1530def27e33fe7e93696c5c1bb65e5cac87bd07806beae1f3a5664736f6c63430008140033",
  "devdoc": {
    "kind": "dev",
    "methods": {},
    "version": 1
  },
  "userdoc": {
    "kind": "user",
    "methods": {},
    "version": 1
  },
  "storageLayout": {
    "storage": [
      {
        "astId": 318,
        "contract": "contracts/FundMe.sol:FundMe",
        "label": "fundersToAmount",
        "offset": 0,
        "slot": "0",
        "type": "t_mapping(t_address,t_uint256)"
      },
      {
        "astId": 325,
        "contract": "contracts/FundMe.sol:FundMe",
        "label": "MINIMUM_VALUE",
        "offset": 0,
        "slot": "1",
        "type": "t_uint256"
      },
      {
        "astId": 335,
        "contract": "contracts/FundMe.sol:FundMe",
        "label": "dataFeed",
        "offset": 0,
        "slot": "2",
        "type": "t_contract(AggregatorV3Interface)104"
      },
      {
        "astId": 337,
        "contract": "contracts/FundMe.sol:FundMe",
        "label": "deploymentTimestamp",
        "offset": 0,
        "slot": "3",
        "type": "t_uint256"
      },
      {
        "astId": 339,
        "contract": "contracts/FundMe.sol:FundMe",
        "label": "lockTime",
        "offset": 0,
        "slot": "4",
        "type": "t_uint256"
      },
      {
        "astId": 341,
        "contract": "contracts/FundMe.sol:FundMe",
        "label": "owner",
        "offset": 0,
        "slot": "5",
        "type": "t_address"
      },
      {
        "astId": 343,
        "contract": "contracts/FundMe.sol:FundMe",
        "label": "erc20Addr",
        "offset": 0,
        "slot": "6",
        "type": "t_address"
      },
      {
        "astId": 346,
        "contract": "contracts/FundMe.sol:FundMe",
        "label": "getFundSuccess",
        "offset": 20,
        "slot": "6",
        "type": "t_bool"
      }
    ],
    "types": {
      "t_address": {
        "encoding": "inplace",
        "label": "address",
        "numberOfBytes": "20"
      },
      "t_bool": {
        "encoding": "inplace",
        "label": "bool",
        "numberOfBytes": "1"
      },
      "t_contract(AggregatorV3Interface)104": {
        "encoding": "inplace",
        "label": "contract AggregatorV3Interface",
        "numberOfBytes": "20"
      },
      "t_mapping(t_address,t_uint256)": {
        "encoding": "mapping",
        "key": "t_address",
        "label": "mapping(address => uint256)",
        "numberOfBytes": "32",
        "value": "t_uint256"
      },
      "t_uint256": {
        "encoding": "inplace",
        "label": "uint256",
        "numberOfBytes": "32"
      }
    }
  }
}