{
  "address": "0xd06bCE2b9eBBB363D077C7b958c4af411F35Fda9",
  "abi": [
    {
      "inputs": [
        {
          "internalType": "uint256",
          "name": "_lockTime",
          "type": "uint256"
        },
        {
          "internalType": "address",
          "name": "dataFeedAddr",
          "type": "address"
        }
      ],
      "stateMutability": "nonpayable",
      "type": "constructor"
    },
    {
      "anonymous": false,
      "inputs": [
        {
          "indexed": false,
          "internalType": "uint256",
          "name": "",
          "type": "uint256"
        }
      ],
      "name": "FundWithDrawByOwner",
      "type": "event"
    },
    {
      "anonymous": false,
      "inputs": [
        {
          "indexed": false,
          "internalType": "address",
          "name": "",
          "type": "address"
        },
        {
          "indexed": false,
          "internalType": "uint256",
          "name": "",
          "type": "uint256"
        }
      ],
      "name": "ReFundWithAccount",
      "type": "event"
    },
    {
      "inputs": [],
      "name": "dataFeed",
      "outputs": [
        {
          "internalType": "contract AggregatorV3Interface",
          "name": "",
          "type": "address"
        }
      ],
      "stateMutability": "view",
      "type": "function"
    },
    {
      "inputs": [],
      "name": "erc20Addr",
      "outputs": [
        {
          "internalType": "address",
          "name": "",
          "type": "address"
        }
      ],
      "stateMutability": "view",
      "type": "function"
    },
    {
      "inputs": [],
      "name": "fund",
      "outputs": [],
      "stateMutability": "payable",
      "type": "function"
    },
    {
      "inputs": [
        {
          "internalType": "address",
          "name": "",
          "type": "address"
        }
      ],
      "name": "fundersToAmount",
      "outputs": [
        {
          "internalType": "uint256",
          "name": "",
          "type": "uint256"
        }
      ],
      "stateMutability": "view",
      "type": "function"
    },
    {
      "inputs": [],
      "name": "getChainlinkDataFeedLatestAnswer",
      "outputs": [
        {
          "internalType": "int256",
          "name": "",
          "type": "int256"
        }
      ],
      "stateMutability": "view",
      "type": "function"
    },
    {
      "inputs": [],
      "name": "getFund",
      "outputs": [],
      "stateMutability": "nonpayable",
      "type": "function"
    },
    {
      "inputs": [],
      "name": "getFundSuccess",
      "outputs": [
        {
          "internalType": "bool",
          "name": "",
          "type": "bool"
        }
      ],
      "stateMutability": "view",
      "type": "function"
    },
    {
      "inputs": [
        {
          "internalType": "address",
          "name": "funder",
          "type": "address"
        }
      ],
      "name": "getFunderToAmount",
      "outputs": [
        {
          "internalType": "uint256",
          "name": "",
          "type": "uint256"
        }
      ],
      "stateMutability": "view",
      "type": "function"
    },
    {
      "inputs": [],
      "name": "owner",
      "outputs": [
        {
          "internalType": "address",
          "name": "",
          "type": "address"
        }
      ],
      "stateMutability": "view",
      "type": "function"
    },
    {
      "inputs": [],
      "name": "refund",
      "outputs": [],
      "stateMutability": "nonpayable",
      "type": "function"
    },
    {
      "inputs": [
        {
          "internalType": "address",
          "name": "_erc20Addr",
          "type": "address"
        }
      ],
      "name": "setErc20Addr",
      "outputs": [],
      "stateMutability": "nonpayable",
      "type": "function"
    },
    {
      "inputs": [
        {
          "internalType": "address",
          "name": "funder",
          "type": "address"
        },
        {
          "internalType": "uint256",
          "name": "amount",
          "type": "uint256"
        }
      ],
      "name": "setFunderToAmount",
      "outputs": [],
      "stateMutability": "nonpayable",
      "type": "function"
    },
    {
      "inputs": [
        {
          "internalType": "address",
          "name": "newOwner",
          "type": "address"
        }
      ],
      "name": "transferOwnerShip",
      "outputs": [],
      "stateMutability": "nonpayable",
      "type": "function"
    }
  ],
  "transactionHash": "0xe4529fb1a49802e27f5c0b9932357c6e75568bf5e8378935eef9ec6bf7da35db",
  "args": [
    180,
    "0x694AA1769357215DE4FAC081bf1f309aDC325306"
  ],
  "numDeployments": 2,
  "solcInputHash": "bb0d69896b9f50789893b8ccc343d0c6",
  "bytecode": "0x608060405268056bc75e2d631000006001556000600660146101000a81548160ff0219169083151502179055503480156200003957600080fd5b50604051620017c2380380620017c283398181016040528101906200005f91906200019c565b80600260006101000a81548173ffffffffffffffffffffffffffffffffffffffff021916908373ffffffffffffffffffffffffffffffffffffffff16021790555033600560006101000a81548173ffffffffffffffffffffffffffffffffffffffff021916908373ffffffffffffffffffffffffffffffffffffffff16021790555042600381905550816004819055505050620001e3565b600080fd5b6000819050919050565b6200011181620000fc565b81146200011d57600080fd5b50565b600081519050620001318162000106565b92915050565b600073ffffffffffffffffffffffffffffffffffffffff82169050919050565b6000620001648262000137565b9050919050565b620001768162000157565b81146200018257600080fd5b50565b60008151905062000196816200016b565b92915050565b60008060408385031215620001b657620001b5620000f7565b5b6000620001c68582860162000120565b9250506020620001d98582860162000185565b9150509250929050565b6115cf80620001f36000396000f3fe6080604052600436106100c25760003560e01c80639c5e5e0e1161007f578063b60d428811610059578063b60d428814610242578063bea4dfb51461024c578063d39cf00614610277578063da4658e0146102a0576100c2565b80639c5e5e0e1461019d5780639e42ff90146101da5780639f883a0514610205576100c2565b806313ffff01146100c7578063317e3ce0146100f0578063590e1ae31461011b5780638863dd1a146101325780638da5cb5b1461015b5780638edd6eb614610186575b600080fd5b3480156100d357600080fd5b506100ee60048036038101906100e99190610d23565b6102cb565b005b3480156100fc57600080fd5b5061010561039f565b6040516101129190610d5f565b60405180910390f35b34801561012757600080fd5b506101306103c5565b005b34801561013e57600080fd5b5061015960048036038101906101549190610d23565b610622565b005b34801561016757600080fd5b506101706106f6565b60405161017d9190610d5f565b60405180910390f35b34801561019257600080fd5b5061019b61071c565b005b3480156101a957600080fd5b506101c460048036038101906101bf9190610d23565b61099c565b6040516101d19190610d93565b60405180910390f35b3480156101e657600080fd5b506101ef6109e4565b6040516101fc9190610e0d565b60405180910390f35b34801561021157600080fd5b5061022c60048036038101906102279190610d23565b610a0a565b6040516102399190610d93565b60405180910390f35b61024a610a22565b005b34801561025857600080fd5b50610261610b05565b60405161026e9190610e41565b60405180910390f35b34801561028357600080fd5b5061029e60048036038101906102999190610e88565b610ba6565b005b3480156102ac57600080fd5b506102b5610c7d565b6040516102c29190610ee3565b60405180910390f35b600560009054906101000a900473ffffffffffffffffffffffffffffffffffffffff1673ffffffffffffffffffffffffffffffffffffffff163373ffffffffffffffffffffffffffffffffffffffff161461035b576040517f08c379a000000000000000000000000000000000000000000000000000000000815260040161035290610f81565b60405180910390fd5b80600660006101000a81548173ffffffffffffffffffffffffffffffffffffffff021916908373ffffffffffffffffffffffffffffffffffffffff16021790555050565b600660009054906101000a900473ffffffffffffffffffffffffffffffffffffffff1681565b600454600354426103d69190610fd0565b11610416576040517f08c379a000000000000000000000000000000000000000000000000000000000815260040161040d90611050565b60405180910390fd5b683635c9adc5dea0000061042947610c90565b10610469576040517f08c379a0000000000000000000000000000000000000000000000000000000008152600401610460906110bc565b60405180910390fd5b60008060003373ffffffffffffffffffffffffffffffffffffffff1673ffffffffffffffffffffffffffffffffffffffff168152602001908152602001600020549050600081036104ef576040517f08c379a00000000000000000000000000000000000000000000000000000000081526004016104e690611128565b60405180910390fd5b600047905060003373ffffffffffffffffffffffffffffffffffffffff168260405161051a90611179565b60006040518083038185875af1925050503d8060008114610557576040519150601f19603f3d011682016040523d82523d6000602084013e61055c565b606091505b50509050806105a0576040517f08c379a0000000000000000000000000000000000000000000000000000000008152600401610597906111da565b60405180910390fd5b60008060003373ffffffffffffffffffffffffffffffffffffffff1673ffffffffffffffffffffffffffffffffffffffff168152602001908152602001600020819055507f8cf4b58cc0a55abd85f7ff567c54a19006bba1b5d243f461b93fcd05762c34c333836040516106159291906111fa565b60405180910390a1505050565b600560009054906101000a900473ffffffffffffffffffffffffffffffffffffffff1673ffffffffffffffffffffffffffffffffffffffff163373ffffffffffffffffffffffffffffffffffffffff16146106b2576040517f08c379a00000000000000000000000000000000000000000000000000000000081526004016106a990610f81565b60405180910390fd5b80600560006101000a81548173ffffffffffffffffffffffffffffffffffffffff021916908373ffffffffffffffffffffffffffffffffffffffff16021790555050565b600560009054906101000a900473ffffffffffffffffffffffffffffffffffffffff1681565b6004546003544261072d9190610fd0565b1161076d576040517f08c379a000000000000000000000000000000000000000000000000000000000815260040161076490611050565b60405180910390fd5b600560009054906101000a900473ffffffffffffffffffffffffffffffffffffffff1673ffffffffffffffffffffffffffffffffffffffff163373ffffffffffffffffffffffffffffffffffffffff16146107fd576040517f08c379a00000000000000000000000000000000000000000000000000000000081526004016107f490610f81565b60405180910390fd5b683635c9adc5dea0000061081047610c90565b11610850576040517f08c379a00000000000000000000000000000000000000000000000000000000081526004016108479061126f565b60405180910390fd5b6000804790503373ffffffffffffffffffffffffffffffffffffffff168160405161087a90611179565b60006040518083038185875af1925050503d80600081146108b7576040519150601f19603f3d011682016040523d82523d6000602084013e6108bc565b606091505b50508092505081610902576040517f08c379a00000000000000000000000000000000000000000000000000000000081526004016108f9906111da565b60405180910390fd5b60008060003373ffffffffffffffffffffffffffffffffffffffff1673ffffffffffffffffffffffffffffffffffffffff168152602001908152602001600020819055506001600660146101000a81548160ff0219169083151502179055507fbaaa2675405b764129c821b3d973d1acdc3e471fa80222e6717a0f089f5878fc816040516109909190610d93565b60405180910390a15050565b60008060008373ffffffffffffffffffffffffffffffffffffffff1673ffffffffffffffffffffffffffffffffffffffff168152602001908152602001600020549050919050565b600260009054906101000a900473ffffffffffffffffffffffffffffffffffffffff1681565b60006020528060005260406000206000915090505481565b60045460035442610a339190610fd0565b10610a73576040517f08c379a0000000000000000000000000000000000000000000000000000000008152600401610a6a906112db565b60405180910390fd5b600154610a7f34610c90565b1015610ac0576040517f08c379a0000000000000000000000000000000000000000000000000000000008152600401610ab790611347565b60405180910390fd5b346000803373ffffffffffffffffffffffffffffffffffffffff1673ffffffffffffffffffffffffffffffffffffffff16815260200190815260200160002081905550565b600080600260009054906101000a900473ffffffffffffffffffffffffffffffffffffffff1673ffffffffffffffffffffffffffffffffffffffff1663feaf968c6040518163ffffffff1660e01b815260040160a060405180830381865afa158015610b75573d6000803e3d6000fd5b505050506040513d601f19601f82011682018060405250810190610b9991906113ea565b5050509150508091505090565b600660009054906101000a900473ffffffffffffffffffffffffffffffffffffffff1673ffffffffffffffffffffffffffffffffffffffff163373ffffffffffffffffffffffffffffffffffffffff1614610c36576040517f08c379a0000000000000000000000000000000000000000000000000000000008152600401610c2d906114d7565b60405180910390fd5b806000808473ffffffffffffffffffffffffffffffffffffffff1673ffffffffffffffffffffffffffffffffffffffff168152602001908152602001600020819055505050565b600660149054906101000a900460ff1681565b600080610c9b610b05565b90506305f5e10081610cad9190611526565b83610cb89190611557565b915050919050565b600080fd5b600073ffffffffffffffffffffffffffffffffffffffff82169050919050565b6000610cf082610cc5565b9050919050565b610d0081610ce5565b8114610d0b57600080fd5b50565b600081359050610d1d81610cf7565b92915050565b600060208284031215610d3957610d38610cc0565b5b6000610d4784828501610d0e565b91505092915050565b610d5981610ce5565b82525050565b6000602082019050610d746000830184610d50565b92915050565b6000819050919050565b610d8d81610d7a565b82525050565b6000602082019050610da86000830184610d84565b92915050565b6000819050919050565b6000610dd3610dce610dc984610cc5565b610dae565b610cc5565b9050919050565b6000610de582610db8565b9050919050565b6000610df782610dda565b9050919050565b610e0781610dec565b82525050565b6000602082019050610e226000830184610dfe565b92915050565b6000819050919050565b610e3b81610e28565b82525050565b6000602082019050610e566000830184610e32565b92915050565b610e6581610d7a565b8114610e7057600080fd5b50565b600081359050610e8281610e5c565b92915050565b60008060408385031215610e9f57610e9e610cc0565b5b6000610ead85828601610d0e565b9250506020610ebe85828601610e73565b9150509250929050565b60008115159050919050565b610edd81610ec8565b82525050565b6000602082019050610ef86000830184610ed4565b92915050565b600082825260208201905092915050565b7f596f7520617265206e6f74206f776e65722e2063616e27742063616c6c20746860008201527f69732066756e6300000000000000000000000000000000000000000000000000602082015250565b6000610f6b602783610efe565b9150610f7682610f0f565b604082019050919050565b60006020820190508181036000830152610f9a81610f5e565b9050919050565b7f4e487b7100000000000000000000000000000000000000000000000000000000600052601160045260246000fd5b6000610fdb82610d7a565b9150610fe683610d7a565b9250828203905081811115610ffe57610ffd610fa1565b5b92915050565b7f4c6f636b2074696d65206973206e6f742066756c6c2e00000000000000000000600082015250565b600061103a601683610efe565b915061104582611004565b602082019050919050565b600060208201905081810360008301526110698161102d565b9050919050565b7f66756e64206973206c657373207468616e207461726765742e00000000000000600082015250565b60006110a6601983610efe565b91506110b182611070565b602082019050919050565b600060208201905081810360008301526110d581611099565b9050919050565b7f5468657265206973206e6f2066756e642e000000000000000000000000000000600082015250565b6000611112601183610efe565b915061111d826110dc565b602082019050919050565b6000602082019050818103600083015261114181611105565b9050919050565b600081905092915050565b50565b6000611163600083611148565b915061116e82611153565b600082019050919050565b600061118482611156565b9150819050919050565b7f7472616e73666572207478206661696c65640000000000000000000000000000600082015250565b60006111c4601283610efe565b91506111cf8261118e565b602082019050919050565b600060208201905081810360008301526111f3816111b7565b9050919050565b600060408201905061120f6000830185610d50565b61121c6020830184610d84565b9392505050565b7f546172676574206973206e6f7420726561636865640000000000000000000000600082015250565b6000611259601583610efe565b915061126482611223565b602082019050919050565b600060208201905081810360008301526112888161124c565b9050919050565b7f4c6f636b2074696d652069732066756c6c2e0000000000000000000000000000600082015250565b60006112c5601283610efe565b91506112d08261128f565b602082019050919050565b600060208201905081810360008301526112f4816112b8565b9050919050565b7f53656e64206d6f72652045544821000000000000000000000000000000000000600082015250565b6000611331600e83610efe565b915061133c826112fb565b602082019050919050565b6000602082019050818103600083015261136081611324565b9050919050565b600069ffffffffffffffffffff82169050919050565b61138681611367565b811461139157600080fd5b50565b6000815190506113a38161137d565b92915050565b6113b281610e28565b81146113bd57600080fd5b50565b6000815190506113cf816113a9565b92915050565b6000815190506113e481610e5c565b92915050565b600080600080600060a0868803121561140657611405610cc0565b5b600061141488828901611394565b9550506020611425888289016113c0565b9450506040611436888289016113d5565b9350506060611447888289016113d5565b925050608061145888828901611394565b9150509295509295909350565b7f796f7520646f206e6f74207065726d697373696f6e20746f2063616c6c20746860008201527f69732066756e6300000000000000000000000000000000000000000000000000602082015250565b60006114c1602783610efe565b91506114cc82611465565b604082019050919050565b600060208201905081810360008301526114f0816114b4565b9050919050565b7f4e487b7100000000000000000000000000000000000000000000000000000000600052601260045260246000fd5b600061153182610d7a565b915061153c83610d7a565b92508261154c5761154b6114f7565b5b828204905092915050565b600061156282610d7a565b915061156d83610d7a565b925082820261157b81610d7a565b9150828204841483151761159257611591610fa1565b5b509291505056fea26469706673582212205f6203748b7087435427a74343aaa6f3d3fbe307a23c44d4e8357499a373801664736f6c63430008140033",
  "devdoc": {
    "kind": "dev",
    "methods": {},
    "version": 1
  },
  "userdoc": {
    "kind": "user",
    "methods": {},
    "version": 1
  },
  "storageLayout": {
    "storage": [
      {
        "astId": 318,
        "contract": "contracts/FundMe.sol:FundMe",
        "label": "fundersToAmount",
        "offset": 0,
        "slot": "0",
        "type": "t_mapping(t_address,t_uint256)"
      },
      {
        "astId": 325,
        "contract": "contracts/FundMe.sol:FundMe",
        "label": "MINIMUM_VALUE",
        "offset": 0,
        "slot": "1",
        "type": "t_uint256"
      },
      {
        "astId": 335,
        "contract": "contracts/FundMe.sol:FundMe",
        "label": "dataFeed",
        "offset": 0,
        "slot": "2",
        "type": "t_contract(AggregatorV3Interface)104"
      },
      {
        "astId": 337,
        "contract": "contracts/FundMe.sol:FundMe",
        "label": "deploymentTimestamp",
        "offset": 0,
        "slot": "3",
        "type": "t_uint256"
      },
      {
        "astId": 339,
        "contract": "contracts/FundMe.sol:FundMe",
        "label": "lockTime",
        "offset": 0,
        "slot": "4",
        "type": "t_uint256"
      },
      {
        "astId": 341,
        "contract": "contracts/FundMe.sol:FundMe",
        "label": "owner",
        "offset": 0,
        "slot": "5",
        "type": "t_address"
      },
      {
        "astId": 343,
        "contract": "contracts/FundMe.sol:FundMe",
        "label": "erc20Addr",
        "offset": 0,
        "slot": "6",
        "type": "t_address"
      },
      {
        "astId": 346,
        "contract": "contracts/FundMe.sol:FundMe",
        "label": "getFundSuccess",
        "offset": 20,
        "slot": "6",
        "type": "t_bool"
      }
    ],
    "types": {
      "t_address": {
        "encoding": "inplace",
        "label": "address",
        "numberOfBytes": "20"
      },
      "t_bool": {
        "encoding": "inplace",
        "label": "bool",
        "numberOfBytes": "1"
      },
      "t_contract(AggregatorV3Interface)104": {
        "encoding": "inplace",
        "label": "contract AggregatorV3Interface",
        "numberOfBytes": "20"
      },
      "t_mapping(t_address,t_uint256)": {
        "encoding": "mapping",
        "key": "t_address",
        "label": "mapping(address => uint256)",
        "numberOfBytes": "32",
        "value": "t_uint256"
      },
      "t_uint256": {
        "encoding": "inplace",
        "label": "uint256",
        "numberOfBytes": "32"
      }
    }
  }
}